:100000000C9434000C943E000C943E000C943E0082
:100010000C943E000C943E000C943E000C943E0068
:100020000C943E000C943E000C943E000C943E0058
:100030000C943E000C943E000C943E000C943E0048
:100040000C943E000C943E000C943E000C943E0038
:100050000C943E000C943E000C943E000C943E0028
:100060000C943E000C943E0011241FBECFEFD8E04C
:10007000DEBFCDBF0E9492000C94B9000C9400002A
:10008000FC0132812381A32FB22F9E918081809524
:1000900089238C93A281B3819C918081809589234F
:1000A0008C9381818230B1F0A32FB22F9E91208159
:1000B000829F802D1124892B8C93A281B3819C91E6
:1000C000218181E020FD80E02081829F802D11240C
:1000D000892B8C930895FC0114BC15BC24B5918127
:1000E00030E4939FC0011124822B84BD24B59281FA
:1000F00030E1939FC0011124822B84BD94B580818F
:100100008370892B84BD95B580818470880F892B7D
:1001100085BD95B58381892B85BD848187BD85810A
:1001200088BD0895CF93DF93CDB7DEB72A970FB67A
:10013000F894DEBF0FBECDBF88E0898381E08A835B
:1001400088E290E09C838B83CE0101960E94400060
:10015000CE01059626E0FC0111922A95E9F722E0EE
:100160002D832E8325E028872FEF29870E946B009F
:06017000FFCFF894FFCF61
:00000001FF
