:100000000C9434000C943E000C943E000C943E0082
:100010000C943E000C943E000C943E000C943E0068
:100020000C943E000C943E000C943E000C943E0058
:100030000C943E000C943E000C943E000C943E0048
:100040000C943E000C943E000C943E000C943E0038
:100050000C943E000C943E000C943E000C943E0028
:100060000C943E000C943E0011241FBECFEFD8E04C
:10007000DEBFCDBF0E9470000C9491000C94000074
:10008000FC0132812381A32FB22F9E918081809524
:1000900089238C93A281B3819C918081809589234F
:1000A0008C9381818230A9F0A32FB22F9E91208161
:1000B000829F802D1124892B8C93A281B3812C9156
:1000C0009181909591708081989F802D1124822B31
:1000D0008C930895FC0132978081682B608308958A
:1000E000CF93DF9300D000D0CDB7DEB788E089830F
:1000F00081E08A8388E290E09C838B83CE01019625
:100100000E94400068E088E290E00E946A002FEFC1
:1001100083ED90E3215080409040E1F700C0000063
:06012000F1CFF894FFCFBF
:00000001FF
